:020000040800F2
:10000000600800205913000865050008670500080E
:100010006B0500086F05000873050008000000006C
:10002000000000000000000000000000770500084C
:1000300079050008000000007B0500087D05000828
:100040007313000873130008731300087313000878
:100050007313000873130008731300087313000868
:100060007313000873130008731300087313000858
:100070007313000873130008731300087313000848
:100080007313000873130008731300087313000838
:100090007313000873130008731300087313000828
:1000A0007313000873130008731300087313000818
:1000B0007313000873130008731300087313000808
:1000C00073130008731300087313000873130008F8
:1000D00073130008CF12000873130008731300088D
:1000E00073130008731300087313000800F002F87C
:1000F00000F05AF80AA090E8000C82448344AAF168
:100100000107DA4501D100F04FF8AFF2090EBAE865
:100110000F0013F0010F18BFFB1A43F0010318473B
:10012000D82C0000F82C00000A444FF0000C10F806
:10013000013B13F0070408BF10F8014B1D1108BF65
:1001400010F8015B641E05D010F8016B641E01F805
:10015000016BF9D113F0080F1EBF10F8014BAD1C55
:100160000C1B09D16D1E58BF01F801CBFAD505E073
:1001700014F8016B01F8016B6D1EF9D59142D6D3CD
:10018000704700000023002400250026103A28BFF5
:1001900078C1FBD8520728BF30C148BF0B607047F9
:1001A0001FB51FBD10B510BD01F0EDFE1146FFF7E4
:1001B000F7FF00F009F801F00BFF03B4FFF7F2FFBF
:1001C00003BC01F029F800000EB5002400F047FA46
:1001D000482000F0C5FF01F019F84FF4165001F067
:1001E0002AF800F0BDFA00F025FE00F04FFD00F007
:1001F0003BFE0CE0BFA20321084600F0C0FCC82073
:1002000000F0C8FF00F019FCC82000F0C3FF00F0A8
:1002100084FB0028EED1BBA20021084600F0AFFC11
:10022000BBA20221002000F0AAFCBCA204210020F5
:1002300000F0A5FCBCA20621002000F0A0FC57E1C4
:100240000A2094FBF0F100FB114000287CD100F063
:1002500029FEB42000F09EFF00F02FFE00F048FEC3
:1002600001A902A800F02DFB1020022300909DF8A8
:1002700008201946282000F040FC1020022300909E
:100280009DF804200421282000F037FCAA480068CB
:1002900002F0C2F80546102005232A4606210090E8
:1002A000302000F02AFCA549A348006802F067F955
:1002B00001D2012500E000259DF808001E2801DD7F
:1002C000012000E000209DF80810192901DA012121
:1002D00000E0002108439DF80410462901DD0121BA
:1002E00000E0002108439DF80410372901DA0121BC
:1002F00000E000210843054391498F48006802F05F
:10030000BFF801D2012000E000200543002D6AD093
:100310009DF808001E2801DD012000E000209DF866
:100320000810192901DA012100E00021084360B119
:10033000002084490860102001231A460021009003
:10034000462000F0DAFB08E0CAE001207D490860A1
:100350007DA20021442000F012FC9DF804004628F4
:1003600001DD012000E000209DF804103C2901DAA5
:10037000012100E00021084358B1002073490860C2
:1003800010200123022200210090502000F0B5FB34
:1003900007E001206D4908606BA200214E2000F0AB
:1003A000EEFB66496448006802F0E9F801D20125D5
:1003B00000E0002562496048006802F061F801D25F
:1003C000012000E00020054345B110200123032255
:1003D000002100905A2000F090FB04E05AA2002176
:1003E000582000F0CCFB55495348006802F0C7F88C
:1003F00001D2012500E000259DF808001E2801DD3E
:10040000012000E000209DF80810192901DA0121DF
:1004100000E0002108439DF80410462901DD012178
:1004200000E0002108439DF80410372901DA01217A
:1004300000E000210843054341493F48006802F0BD
:100440001FF801D2012000E0002005433DB14048E3
:10045000006808B9012000E000203D4908603749E4
:100460003548006802F00CF801D2012500E00025B3
:100470009DF808001E2801DA012000E000209DF808
:100480000810192901DD012100E0002108409DF834
:100490000410462901DA012100E0002108409DF8FE
:1004A0000410372901DD012100E00021084005404A
:1004B00023492148006802F062F801D2012000E0DF
:1004C0000020054065B10120214908602149C1F89B
:1004D000A0011E49086020A200213C2000F04FFB33
:1004E0000A2000F057FE601CC4B2142C00D1002476
:1004F000A6E60000496E697469616C697A696E6785
:100500002E2E2E005761726E696E673A0000000051
:1005100054656D703A2020430000000048756D69F5
:100520003A202025000000006C696768743A20209A
:100530002020206C780000009401002000409C45A1
:100540000000A041A00121422020200088812242F9
:1005500084812142000021422020202020202020D0
:1005600000000000704700BFFEE700BFFEE700BFCD
:10057000FEE700BFFEE77047704770477047000016
:100580000CB50020019000906C48006840F4803069
:100590006A49086000BF6948006800F400300090B4
:1005A0000198401C0190009818B90198B0F5A06F0F
:1005B000F1D16248006800F4003010B101200090D1
:1005C00001E0002000900098012843D15C480068B9
:1005D00040F010005A4908600846006820F0030007
:1005E00008600846006840F0020008605348406810
:1005F000524948600846406848600846406840F4F0
:10060000806048600846406820F47C1048600846D6
:10061000406840F4E81048600846006840F0807088
:10062000086000BF4548006800F000700028F9D05D
:100630004248406820F0030040494860084640684E
:1006400040F00200486000BF3C48406800F00C00E9
:100650000828F9D10CBD10B5FFF792FF10BD10B5F9
:100660003648006840F00100344908600846406898
:10067000344908403149486008460068324908401A
:100680002E4908600846006820F48020086008466B
:10069000406820F4FE0048604FF41F008860FFF7B8
:1006A000DAFF4FF000602949086010BD10B5002145
:1006B00000200022214B5B6803F00C0121B10429CA
:1006C00006D0082928D107E0214B224C236027E0DF
:1006D0001F4B204C236023E0184B5B6803F4701021
:1006E000164B5B6803F48032022303EB904022B97F
:1006F000194B4343174C23600DE0104B5B6803F428
:10070000003323B1144B4343124C236003E0104BDE
:100710004343104C236003E00D4B0E4C236000BF9D
:1007200000BF064B5B68C3F303130C4CE15C094B41
:100730001B68CB40074C236010BD00000010024036
:10074000002002400000FFF8FFFFF6FE08ED00E089
:1007500000127A000000002000093D000400002083
:1007600008B50121042001F0A1F94FF48070ADF823
:10077000000010208DF8030003208DF80200694668
:100780000E4800F0D7FE4FF480710C4800F07FFF58
:100790000121202001F08AF90420ADF8000010208A
:1007A0008DF8030003208DF802006946044800F02C
:1007B000C1FE0421024800F06AFF08BD00080140A4
:1007C0000014014010B56248006820F00F00604935
:1007D00008600846006840F00300086000205D499A
:1007E0000860142000F0D6FC01205B49C1F88001AC
:1007F0001E2000F0EBFC10BD10B50024544800682A
:1008000020F00F00524908600846006840F00800D8
:10081000086004E0601CC4B2012000F0D7FC4D4821
:100820008038006808B1642CF4DB642C01DB012003
:1008300010BD002404E0601CC4B2012000F0C6FC1E
:1008400044488038006808B9642CF4DB642C01DB70
:100850000120EDE70020EBE710B5002404E0601C68
:10086000C4B2012000F0B2FC3A488038006808B1F8
:10087000642CF4DB002404E0601CC4B2012000F00E
:10088000A5FC34488038006808B9642CF4DB2820C3
:1008900000F09CFC2F488038006808B1012010BD92
:1008A0000020FCE770B50024002506E06006040E79
:1008B000FFF7D2FF0443681CC5B2082DF6DB2046C3
:1008C00070BD7CB505460E46FFF77CFFFFF794FF31
:1008D000F8B9002405E0FFF7E5FF0DF80400601CFF
:1008E000C4B2052CF7DB9DF800009DF80110084408
:1008F0009DF8021008449DF8031008449DF8041068
:10090000884208D19DF8000030709DF802002870E0
:1009100001E001207CBD0020FCE708B50121082092
:1009200001F0C4F80120ADF8000010208DF803009C
:1009300003208DF802006946054800F0FBFD012107
:10094000034800F0A4FEFFF73DFFFFF755FF08BD89
:10095000000C0140808121420080214270B5044694
:100960000E4626B18021FE4800F091FE03E0802172
:10097000FB4800F08EFE4FF48071F94800F089FECC
:1009800000251BE04FF48071F64800F082FE04F071
:10099000800028B14FF40071F24800F078FE04E0C6
:1009A0004FF40071EF4800F074FE4FF48071ED4891
:1009B00000F06DFE6006040E681CC5B2082DE1DB78
:1009C0004FF48071E64800F062FE8021E44800F0B8
:1009D0005EFE70BD70B504460D4605F1B001C8B2AB
:1009E0000021FFF7BBFF102141EA14100021FFF79F
:1009F000B5FF04F00F0141F001000021FFF7AEFF49
:100A000070BD10B500218D20FFF7A8FF0021142034
:100A1000FFF7A4FF0021AF20FFF7A0FF10BD10B526
:100A200000218D20FFF79AFF00211020FFF796FF8D
:100A30000021AE20FFF792FF10BD70B5002419E031
:100A400004F1B001C8B20021FFF788FF0021084679
:100A5000FFF784FF00211020FFF780FF002505E04D
:100A600001210020FFF77AFF681CC5B2802DF7DB5B
:100A7000601CC4B2082CE3DB70BD2DE9F0410746D1
:100A80000E46904600250024A8F12000C5B27F2F15
:100A900002DD0027B01CC6B231463846FFF79AFF88
:100AA000002408E004EB0511AF4A505C0121FFF778
:100AB00055FF601CC4B2082CF4DB701CC1B2384670
:100AC000FFF788FF002409E004EB05110831A64A6E
:100AD000505C0121FFF742FF601CC4B2082CF3DB1D
:100AE000BDE8F08110B50246012000E050430B1E26
:100AF000A1F10104E1B2F9D110BD2DE9FF5F074674
:100B000091461D460E9E4FF0000A002433E0281B3C
:100B1000401EC1B20A20FFF7E5FFB9FBF0F00A2141
:100B2000B0FBF1F201FB1208BAF1000F13D1681EFD
:100B3000A04210DDB8F1000F0BD1B34606EBDB711C
:100B4000491001FB0471C8B220220199FFF795FFFB
:100B50000FE04FF0010AB34606EBDB71491001FBD1
:100B60000471C8B208F13001CAB20199FFF785FFDC
:100B700000BF601CC4B2AC42C9DBBDE8FF9F2DE9D9
:100B8000F04104460F46154600260EE0AA5D3946A0
:100B90002046FFF772FF04F10800C4B2782C02DD92
:100BA0000024B81CC7B2701CC6B2A85D0028EDD1E5
:100BB000BDE8F0812DE9F04180460E46154600273C
:100BC00031464046FFF706FF00240AE0674A02EB81
:100BD0008511085D0121FFF7C1FE781CC7B2601CBA
:100BE000C4B2102CF2DB701CC1B24046FFF7F2FE1B
:100BF00000240CE06900491C5C4A02EB4111085DCD
:100C00000121FFF7ABFE781CC7B2601CC4B2102CE8
:100C1000F0DBBDE8F0812DE9F05F06460F46904617
:100C20001C46DDF828A04FF0000BE11704EB5171D2
:100C3000C910A4EBC10131B92046E11704EB517191
:100C4000C1F3C70506E02046E11704EB5171C91056
:100C5000491CCDB23D4615E029463046FFF7BAFEA5
:100C6000B1460BE059460BF1010B1AF801000121C6
:100C7000FFF774FE09F1010000F0FF09C145F1DB47
:100C8000681CC5B2A542E7DBBDE8F09F08B50121AD
:100C9000084600F00BFF0121354800F01CFD012142
:100CA0001C2000F003FF4FF4E060ADF800001020BE
:100CB0008DF8030003208DF802006946294800F0F2
:100CC00039FC4FF4E061274800F0E1FC8020ADF8EA
:100CD00000006946224800F02DFC8021204800F0E9
:100CE000D6FC4FF48070ADF8000069461C4800F057
:100CF00021FC4FF480711A4800F0C9FC4FF4806168
:100D0000184800F0C4FC642000F044FA4FF48061FD
:100D1000144800F0BEFC642000F03CFA4FF48061FF
:100D2000104800F0B4FC0021AE20FFF717FE0021B0
:100D30000846FFF713FE00211020FFF70FFE0021E9
:100D40004020FFF70BFE00218120FFF707FE002166
:100D5000CF20FFF703FE0021A120FFF7FFFD09E0F0
:100D6000000C014000100140082800081400002079
:100D7000000230000021C820FFF7F0FD0021A6206E
:100D8000FFF7ECFD0021A820FFF7E8FD00213F2040
:100D9000FFF7E4FD0021D320FFF7E0FD0021084626
:100DA000FFF7DCFD0021D520FFF7D8FD00218020D2
:100DB000FFF7D4FD0021D920FFF7D0FD0021F1205D
:100DC000FFF7CCFD0021DA20FFF7C8FD002112203B
:100DD000FFF7C4FD0021DB20FFF7C0FD002140200C
:100DE000FFF7BCFD00212020FFF7B8FD0021022005
:100DF000FFF7B4FD00218D20FFF7B0FD0021142086
:100E0000FFF7ACFD0021A420FFF7A8FD0021A620DC
:100E1000FFF7A4FD0021AF20FFF7A0FD0021AF20C8
:100E2000FFF79CFDFFF709FE00210846FFF7D2FD02
:100E300008BD000008B50121082000F037FE02209F
:100E4000ADF8000010208DF8030003208DF802009B
:100E50006946044800F06EFB0221024800F017FCCE
:100E600008BD0000000C014010B500F06BF810BD8B
:100E700010B5044600F0A0F8462000F01EF900BFAF
:100E800000F0C9F80028FBD1204600F016F900BF99
:100E900000F0C1F80028FBD100F0A7F8052000F011
:100EA00079F910BD10B50120FFF7E2FF0720FFF729
:100EB000DFFF2020FFF7DCFF10BD10B500F07CF84D
:100EC000472000F0FAF800BF00F0A5F80028FBD199
:100ED000012000F016F917490870002000F011F900
:100EE0001449487000F081F8052000F053F910BD56
:100EF0002DE9F0410F4800780F4908800D484078EF
:100F0000097800EB01200C4908800846008801F0B0
:100F1000A3FA804601F048FA06464FF03332074BF9
:100F200001F096F8044601F061F805490860BDE853
:100F3000F0810000980100209A0100203333F33F34
:100F40009401002008B50121102000F0AFFD4FF4FE
:100F5000C050ADF8000010208DF8030003208DF87C
:100F6000020069467B4800F0E5FA01207A490860F2
:100F70007A49C1F8AC0108BD08B54FF40060ADF87E
:100F8000000003208DF8020014208DF8030069464C
:100F9000704800F0CFFA08BD08B54FF40060ADF816
:100FA000000003208DF8020004208DF8030069463C
:100FB000684800F0BFFA08BD10B5FFF7DDFF01205B
:100FC0006549091F08606549C1F8B001042000F0B7
:100FD000FDF800206049091F0860042000F0F6F8C1
:100FE00000205E49C1F8B00110BD10B5FFF7C4FF85
:100FF0000020594908605949C1F8AC01042000F0AB
:10100000E5F80120544908605449C1F8AC010420B6
:1010100000F0DCF810BD10B5002401204E49091F76
:10102000086000F0D3F801204C49C1F8B00100F08D
:10103000CDF8FFF7B1FF07E0601CC4B2FA2C03DD66
:10104000FFF7D3FF012010BD434884380068002813
:10105000F2D14149086000BFF5E710B500203E49D4
:101060000860FFF789FF00203C49C1F8AC0102206D
:1010700000F0ACF8012038490860022000F0A6F822
:1010800000203649C1F8B00110BD10B5002032492A
:101090000860FFF771FF01203049C1F8AC01022060
:1010A00000F094F801202C490860022000F08EF82E
:1010B00000202A49C1F8B00110BD70B50446FFF701
:1010C0005BFF002024490860002517E0E009224961
:1010D000091F08606006040E022000F077F8012066
:1010E0001E49C1F8B001022000F070F800201A4932
:1010F0000860022000F06AF8681CC5B2082DE5DB24
:1011000070BD70B505460024FFF746FF002616E0C7
:10111000002011490860022000F058F801200F4912
:10112000C1F8B0016006040E0B488438006808B1AD
:10113000601CC4B2012000F049F8701CC6B2082E31
:10114000E6DB15B9FFF7A1FF01E0FFF786FF2046B8
:1011500070BD000000100140B00122420000224298
:1011600010B504466FF0040000F065F9E11704EBD8
:101170005171C1F3C701234A11701046007800EB8A
:101180004001C1EBC0104FF6FF7101EAC0001E49DB
:10119000088010BD01461C4A12884A434FF0E023E4
:1011A0005A6100229A6101221A6100BF4FF0E022C9
:1011B000106900F001021AB100F48032002AF5D063
:1011C00000224FF0E0231A619A61704701460D4AF0
:1011D00012784A434FF0E0235A6100229A610122BB
:1011E0001A6100BF4FF0E022106900F001021AB14D
:1011F00000F48032002AF5D000224FF0E0231A617B
:101200009A6170479C0100209E01002010B54FF4A8
:10121000A06000F0C1F810BD014600BF704700BFDC
:10122000494A128802F04002002AF9D0C2B2464B65
:101230001B1D1A80704710B586B00446012144F288
:10124000050000F033FC4FF40070ADF814000320EB
:101250008DF8160018208DF8170005A93B4800F0FE
:1012600069F94FF48060ADF8140004208DF8170080
:1012700005A9364800F05EF925208DF8000003200E
:101280008DF801008DF8020001208DF803006846FA
:1012900000F087F801940020ADF80800ADF80A00CE
:1012A000ADF80C00ADF810000C20ADF80E0001A94F
:1012B000254800F0A2FC012240F22551224800F00E
:1012C00034FD0121204800F024FD06B010BD10B50A
:1012D00040F225511C4800F00DFE10B31A4800F0F2
:1012E00089FDC4B21A48007800F08000C8B91848D7
:1012F000007800F0400060B10A2C03D000201449AF
:10130000087020E01248007840F080001049087012
:1013100019E00D2C06D10E48007840F040000C4931
:10132000087010E00A48007800F03F0009490C54AA
:1013300007480078401C06490870084600783F2896
:1013400001DD0020087010BD003801400008014098
:10135000A4010020BC01002009488047094800473B
:10136000FEE7FEE7FEE7FEE7FEE7FEE7FEE7FEE755
:10137000FEE7FEE704480549054A064B70470000B2
:101380005F060008ED0000086002002060080020F1
:10139000600400206004002031490143314A11609B
:1013A000704770B5002100230F22C47804B32D4C80
:1013B000246804F4E064C4F5E064210AC1F1040384
:1013C000CA40447804FA03F18478144021430901A7
:1013D000254C0678A155047804F01F050124AC4083
:1013E00005786D11AD0005F1E025C5F8004109E073
:1013F000047804F01F050124AC401C4D06787611DA
:1014000045F8264070BD1A4A0A400243154B1B1F7F
:101410001A60704739B1134A121D12680243114B0A
:101420001B1D1A6006E00F4A121D126882430D4B05
:101430001B1D1A607047042808D14FF0E02109698C
:1014400041F004014FF0E022116107E04FF0E0218C
:10145000096921F004014FF0E0221161704700009A
:101460000000FA050CED00E000E400E080E100E09F
:1014700080FFFF1F10B50446CC48844208D10121EB
:10148000042000F02DFB0021042000F029FB46E0A1
:10149000C748844208D10121082000F021FB002127
:1014A000082000F01DFB3AE0C248844208D1012127
:1014B000102000F015FB0021102000F011FB2EE0A1
:1014C000BD48844208D10121202000F009FB002101
:1014D000202000F005FB22E0B848844208D1012119
:1014E000402000F0FDFA0021402000F0F9FA16E05B
:1014F000B348844208D10121802000F0F1FA002194
:10150000802000F0EDFA0AE0AE48844207D10121C4
:10151000801500F0E5FA0021A01500F0E1FA10BDF9
:1015200010B50121084600F0DBFA0021012000F08F
:10153000D7FA10BD2DE9F041024600250026002013
:1015400000230024002791F803C00CF00F0591F848
:1015500003C00CF0100CBCF1000F03D091F802C0D6
:101560004CEA050591F800C0BCF1000F31D01468B9
:1015700000202BE04FF0010C0CFA00F3B1F800C092
:101580000CEA03069E4220D183004FF00F0C0CFAA8
:1015900003F7BC4305FA03FC4CEA040491F803C0CA
:1015A000BCF1280F06D14FF0010C0CFA00FCC2F878
:1015B00014C00AE091F803C0BCF1480F05D14FF008
:1015C000010C0CFA00FCC2F810C0401C0828D1D352
:1015D0001460B1F800C0BCF1FF0F34DD5468002086
:1015E0002EE000F1080C4FF0010808FA0CF3B1F8F6
:1015F00000C00CEA03069E4221D183004FF00F0C7D
:101600000CFA03F7BC4305FA03FC4CEA040491F816
:1016100003C0BCF1280F05D100F1080C08FA0CF842
:10162000C2F8148091F803C0BCF1480F07D100F153
:10163000080C4FF0010808FA0CF8C2F81080401CA2
:101640000828CED35460BDE8F0814FF6FF710180C9
:10165000022181700421C170704702460020936806
:101660000B400BB1012000E0002070470146886864
:1016700080B2704702460020D3680B400BB10120B6
:1016800000E0002070470146C86880B270470161E1
:101690007047416170470AB1016100E041617047E4
:1016A000C16070474FF480320A4382618161826178
:1016B00082698269704702460020434B18684FF6E2
:1016C0008073184040EA021008433F4B186070478F
:1016D0003E49C8617047F0B50A4600230024002146
:1016E000002500F00046B6F1004F02D1364EF169F8
:1016F00001E0354E7168C0F3034583B200F4401633
:10170000B6F5401F08D121F070612F4E766826F0A3
:1017100070662D4F7E6012E000F48016B6F5801FD3
:1017200006D1032606FA05F4A14341F0706106E0F4
:10173000460D360103FA06F6B14341F0706122B15D
:10174000460D360103FA06F6314300F00046B6F1C5
:10175000004F02D11C4EF16101E01B4E7160F0BDE3
:1017600030B500228B071C0F0F2303FA04F2164B2F
:1017700008338C1053F824309343134C08348D10E5
:1017800044F8253023468C1053F824308C07240F5E
:1017900000FA04F423430C4C08348D1044F825302F
:1017A00030BD0A49DC310860704700000008014084
:1017B000000C0140001001400014014000180140DD
:1017C000001C0140002001400000014000002042B8
:1017D000DF48006840F00100DD49086008464068C5
:1017E000DC490840DA49486008460068DA490840A0
:1017F000D74908600846006820F480200860084641
:10180000406820F4FE0048604FF41F008860704775
:10181000CF49096821F48031CD4A11601146096829
:1018200021F480211160B0F5803F03D0B0F5802F06
:101830000ED106E0C649096841F48031C44A1160FE
:1018400007E0C349096841F4A021C14A116000E0E2
:1018500000BF00BF704710B50146002200230020E2
:101860004A11012A02D1BA4C236806E0022A02D1A9
:10187000B74C236A01E0B64C636A01F01F020124F1
:1018800094401C400CB1012000E0002010BD38B590
:10189000002000900024002500BF3120FFF7DBFF6F
:1018A00005460098401C00900098B0F5A06F01D04C
:1018B000002DF2D03120FFF7CEFF08B1012400E067
:1018C0000024204638BD01460020A14A106820F0BF
:1018D000F80040EAC10010607047A04908607047F6
:1018E000024600209A4B586820F47C1042EA01031B
:1018F0001843974B586070479849086670470146EF
:101900000020934A506820F003000843506070475D
:101910008F48406800F00C007047014600208C4A58
:10192000506820F0F00008435060704701460020E6
:10193000874A506820F4E0600843506070470146D1
:101940000020834A506820F4605040EAC100506093
:10195000704729B17E4A527A02437D4B5A7204E0A5
:101960007B4A527A82437A4B5A7270477B49D8310C
:101970000860704701460020754A506820F44040D6
:101980000843506070470021714A20321170704A3C
:1019900082F82010012802D004280AD104E0012195
:1019A0006B4A2032117005E00521694A203211701E
:1019B00000E000BF00BF7047694908607047644994
:1019C000096A0143624A11627047654944390860F7
:1019D000704730B500210022002400235C4D6D6863
:1019E00005F00C0121B1042905D0082923D105E017
:1019F0005C4D056022E05B4D05601FE0544D6D6855
:101A000005F47012524D6D6805F48034022505EB23
:101A100092421CB9544D554305600BE04C4D6D6826
:101A200005F400351DB1504D5543056002E04D4DA4
:101A30005543056002E04B4D056000BF00BF444DBB
:101A40006D6805F0F0010909484D6B5C0568DD40E3
:101A500045603F4D6D6805F4E061090A434D6B5CDC
:101A60004568DD4085603A4D6D6805F46051C90AEE
:101A70003E4D6B5C4568DD40C560354D6D6805F4D5
:101A80004041890B3A4D6B5CC568B5FBF3F50561C8
:101A900030BD29B12E4A526902432D4B5A6104E0F0
:101AA0002B4A526982432A4B5A61704729B1284A0E
:101AB00092690243264B9A6104E0254A9269824367
:101AC000234B9A61704729B1214AD2690243204BC6
:101AD000DA6104E01E4AD26982431D4BDA61704725
:101AE00029B11B4AD2680243194BDA6004E0184A54
:101AF000D2688243164BDA60704729B1144A1269E2
:101B00000243134B1A6104E0114A12698243104BDD
:101B10001A61704712494039086070470F49C8641C
:101B200070470B49C87170470948406A40F080709F
:101B300007494862704701460020054A92680A40FA
:101B40000AB1012000E00020704701498872704707
:101B5000001002400000FFF8FFFFF6FE00004242C6
:101B60008004424200127A0000093D00A5010020D5
:101B7000B501002010B50446FB48844209D101217B
:101B80008803FFF7ADFF00214FF48040FFF7A8FF67
:101B900032E0F648844209D101214804FFF7ADFF45
:101BA00000214FF40030FFF7A8FF25E0F048844201
:101BB00009D101218804FFF7A0FF00214FF4802004
:101BC000FFF79BFF18E0EB48844209D10121C804CC
:101BD000FFF793FF00214FF40020FFF78EFF0BE08B
:101BE000E548844208D101210805FFF786FF00215E
:101BF0004FF48010FFF781FF10BD2DE9F04786B04C
:101C000005460E460024A24600BFA1460027B08923
:101C100000B100BF2F462C8A4CF6FF700440F088BC
:101C200004432C82AC894EF6F3100440B08831890D
:101C30000843718908430443AC81AC8A4FF6FF40E6
:101C40000440B0890443AC8201A8FFF7C2FEC64835
:101C5000874202D1DDF810A001E0DDF80CA0A889D0
:101C600000F4004040B10AEBCA0000EB0A103168F2
:101C70004900B0FBF1F807E00AEBCA0000EB0A10DC
:101C800031688900B0FBF1F86420B8FBF0F0040182
:101C90002009642101FB1089A88900F4004040B1AB
:101CA000322000EBC900B0FBF1F000F00700044364
:101CB00008E0322000EB09106421B0FBF1F000F0E5
:101CC0000F0004432C8106B0BDE8F0874FF4165195
:101CD000016000218180C18001810C2141810021AE
:101CE0008181704710B502460020108A4FF2FF0331
:101CF00018400B884C8823438C882343CC8823438B
:101D00001843108210BD0021018041808180C18074
:101D1000704721B1828942F40052828104E08289B5
:101D20004DF6FF731A4082817047F0B503460024D8
:101D300000260025002040F66A17B94200D100BFF6
:101D40001846C1F3421401F01F06012707FA06F5F1
:101D5000012C01D10C3004E0022C01D1103000E044
:101D600014301AB107682F43076002E00768AF43D9
:101D70000760F0BD1AB1838A0B43838202E0838A35
:101D80008B4383827047028A4FF6F0731A400282B7
:101D9000028A0A430282704782894FF2FF731A4017
:101DA000828182890A438281704721B1828942F00F
:101DB0000202828104E082894FF6FD731A4082811B
:101DC0007047028A4FF6DF731A400282028A0A4382
:101DD0000282704721B1028A42F48042028204E00A
:101DE000028A4BF6FF731A4002827047C1F3080261
:101DF0008280704701468888C0F308007047818957
:101E000041F0010181817047028BD2B20283028BC3
:101E100042EA012202837047028B02F47F4202836E
:101E2000028B0A430283704721B1828A42F020026A
:101E3000828204E0828A4FF6DF731A408282704702
:101E400021B1828A42F01002828204E0828A4FF637
:101E5000EF731A408282704721B1828A42F00802F1
:101E6000828204E0828A4FF6F7731A4082827047BA
:101E700021B1828942F40042828103E08289C2F367
:101E80000E028281704721B1828A42F4006282820E
:101E900004E0828A4FF2FF731A4082827047828A7E
:101EA0004FF6FB731A408282828A0A43828270470D
:101EB00021B1828A42F00202828204E0828A4FF6D5
:101EC000FD731A408282704702460020B1F5007F00
:101ED00000D100BF13880B400BB1012000E00020AF
:101EE000704701F40072B2F5007F00D100BFCA4311
:101EF0000280704770B502460024002300250020B0
:101F000040F66A16B14200D100BFC1F3421501F09C
:101F10001F03012606FA03F3012D02D196893340EF
:101F200006E0022D02D1168A334001E0968A334042
:101F30000C12012606FA04F41688344013B10CB1D1
:101F4000012000E0002070BD10B50022002340F603
:101F50006A14A14200D100BF0A1201249440A3B226
:101F6000DC43048010BD0000003801400044004004
:101F700000480040004C004000500040704770474F
:101F8000704770477047754600F02CF8AE46050064
:101F90006946534620F00700854618B020B5FFF784
:101FA000E9F9BDE820404FF000064FF000074FF080
:101FB00000084FF0000B21F00701AC46ACE8C00967
:101FC000ACE8C009ACE8C009ACE8C0098D46704770
:101FD00010B50446AFF300802046BDE81040FEF780
:101FE000ECB8000000487047FC01002021F00042DE
:101FF000A2F16052B2F5801F01F0004328BFD2F178
:102000007F6C0BD95FEA001C43EAC20242EB5070BE
:1020100018BF704728BF20F001007047B2F5801F3D
:10202000BCBF184670474FEA410C1CF5001F02D296
:10203000084600F09FBA70B500F062F90000008910
:10204000FFF7F6BF4FF00040A0F58000704700009A
:102050002DE9C04130B4DFF8A0C23CEA111418BF2A
:102060003CEA131400F0EC8081EA03051CEA111429
:1020700044EAD57418BF1CEA131500F0C780A4EB1E
:1020800005044FF0004545EAC12145EAC32341EA72
:10209000505143EA525304F17F74994204F50034DD
:1020A0004FEAC0204FEAC22208BF904200F09C8055
:1020B0004FEA13650FF24016765D4FEA134506FBB3
:1020C00005F7C7F1807706FB07F74FEAD737A7FB7D
:1020D00003687642C8F58038A7FB06CE38BFA8F162
:1020E000010807FB08E64FF0000EA6FB028CE6FB9A
:1020F00003CEDCF1000CCEF1004E38BFAEF1010E84
:10210000A6FB0C584FF000074FF00005E6FB0E87CA
:10211000A1FB08C6A0FB07CE16EB0E0645F1000595
:10212000E1FB076515F1E04E7EBFA4F580345FEA60
:1021300046066D4116F1800745F100054FEA172765
:102140004FEA066647EA0567A6F1DE46B6F1805F0C
:102150004FEA15251FD9384624F0010C05EBC47150
:10216000BCF1FE6F01EB0C1102D8F0BCBDE80081A0
:1021700024425CBF01F5801E9EEAC47F02D4F0BCFD
:10218000BDE80081244238D4F0BCA1F1C041BDE8D3
:10219000004100F003B94FEAD22242EA43524FEA2B
:1021A000D323A7FB02864FEAD02040EA415007FB29
:1021B00003661EEA0E0F4FEAD12105FB026658BFE7
:1021C000A6EB0056B6EB00564FEA520E4EEAC37E1F
:1021D00018EB0E0E56EB530EBDD518EB02085E4100
:1021E0007F1C55F10005B6E74FF480154FF000074E
:1021F0004FF000064FF00008ADE7F0BC4FF00000D4
:1022000001F1C04101F00041BDE8008111EA0C1F5D
:102210000CEA131500D00CE013EA0C1F00F0258027
:102220004FF00000F0BC81EA030101F00041BDE87D
:102230000081F0BCBDE8004181EA030100F0AEB8C6
:10224000F0BCBDE8004170B500F05AF8097EFC3ED4
:1022500000F007B881EA03014FF0000001F00041EF
:10226000704781EA030100F099B8F0BCBDE8004175
:102270004FF0000021497047FFFDFBF9F7F5F4F23C
:10228000F0EEEDEBE9E8E6E4E3E1E0DEDDDBDAD811
:10229000D7D5D4D3D1D0CFCDCCCBCAC8C7C6C5C46F
:1022A000C2C1C0BFBEBDBCBBBAB9B8B7B6B5B4B386
:1022B000B2B1B0AFAEADACABAAA9A8A8A7A6A5A471
:1022C000A3A3A2A1A09F9F9E9D9C9C9B9A99999835
:1022D0009797969595949393929191908F8F8E8ED8
:1022E0008D8C8C8B8B8A8989888887878685858465
:1022F00084838382828181800000FF070000F87F51
:102300000EF1020E2EF0030E5EF8046B364205D479
:10231000012A43EB030515F5001F12D8012841EBF4
:10232000010C1CF5001F0CD80ED14FEAD17C15F51D
:10233000001F0CEB4C0C0CF1020C08BF4CEBD37CD7
:1023400004E04FF0080C01E04FEAD37C0CEB4C05A5
:1023500026FA05F606F00706B6F1040C06D20EEBD7
:10236000860CBDE870404CF0010C6047DFE80CF0D3
:10237000090B02024FF000414FF00000A1F50021CF
:1023800070BD19461046012851EB010418BFD4F561
:10239000001484BF002001F0004170BD0808A0F5C2
:1023A00000114FEA3101704743004FEAD30C4FEA66
:1023B0003C0C43401FBF40070CF1605113F0FE4F2F
:1023C00070471CF0006F03D100200CF000417047F3
:1023D0000CF0004343EA507010B540EACC0000F026
:1023E00083F800BF000000924FEA0001FFF7D6BF5C
:1023F0004FF000414FF00000A1F500217047401060
:1024000058BFC0F14040491058BFC1F1404181421E
:10241000EFF3008070470000C10DD1F19E0206DB92
:102420004FEA002343F0004323FA02F070470042D2
:1024300007D54FEA4001B1F1FE4F02D24FF0000044
:10244000704710B500F050F8499224800020704782
:102450006FEA200070470000B0FA80F310FA03F230
:10246000C3F19D030AD0D90501EB1220530638BFF2
:10247000704700F1010008BF20F001007047000024
:1024800050EA010C00F113801CF5000F58BFBCF599
:10249000000F01D48842704707D710F5000F58BFCE
:1024A00011F5000F15D488427047894270471CF51A
:1024B000000F04D5BCF5000FF7D5814270474FF0EF
:1024C000807C1CEB400F38BF1CEB410F01D28142D6
:1024D000704710B500F008F8922449004FF0005002
:1024E0004FF08051FFF78BBF0EF1020E2EF0030E5E
:1024F0005EF8044B244204D44FEA4102B2F17F4F0C
:1025000011D84FEA4003B3F17F4F0CD80ED14FEAF8
:10251000D07CB2F17F4F0CEB4C0C0CF1020C08BFDD
:102520004CEBD17C04E04FF0080C01E04FEAD17C89
:102530000CEB4C0324FA03F404F00704B4F1040C8C
:1025400006D20EEB840CBDE810404CF0010C604745
:10255000DFE80CF0070802024FF00040A0F5800011
:1025600010BD0846420018BFD2F1807288BF00F04B
:10257000004010BDFF2141EAD050C005704751EA2C
:10258000000C00F113801CF5000F58BFBCF5000FC4
:1025900001D48142704707D711F5000F58BF10F5DD
:1025A000000F15D481427047894270471CF5000F17
:1025B00004D5BCF5000FF7D5884270474FF0807CFA
:1025C0001CEB410F38BF1CEB400F01D28842704713
:1025D00080EA010081EA000180EA0100FFF779BF8B
:1025E0000000000000000000002F000000000700B5
:1025F000070000147F147F1400242A7F2A1200622F
:1026000064081323003649552250000005030000DA
:1026100000001C224100000041221C000014083E62
:1026200008140008083E0808000000A06000000828
:10263000080808080000606000000020100804027C
:10264000003E5149453E0000427F4000004261513A
:102650004946002141454B31001814127F100027D4
:1026600045454539003C4A49493000017109050397
:1026700000364949493600064949291E00003636C8
:10268000000000005636000000081422410000142B
:102690001414141400004122140800020151090608
:1026A00000324959513E007C1211127C007F494989
:1026B0004936003E41414122007F4141221C007FBA
:1026C00049494941007F09090901003E4149497AC8
:1026D000007F0808087F0000417F41000020404142
:1026E0003F01007F08142241007F40404040007FAE
:1026F000020C027F007F0408107F003E4141413EF2
:10270000007F09090906003E4151215E007F091939
:1027100029460046494949310001017F0101003F36
:102720004040403F001F2040201F003F4038403FB6
:10273000006314081463000708700807006151491A
:10274000454300007F41410000552A552A550000AD
:1027500041417F000004020102040040404040402B
:10276000000001020400002054545478007F4844C3
:10277000443800384444442000384444487F0038FA
:102780005454541800087E0901020018A4A4A47C23
:10279000007F080404780000447D400000408084ED
:1027A0007D00007F102844000000417F4000007C35
:1027B00004180478007C0804047800384444443841
:1027C00000FC242424180018242418FC007C08048D
:1027D000040800485454542000043F444020003C66
:1027E0004040207C001C2040201C003C4030403CED
:1027F000004428102844001CA0A0A07C004464547D
:102800004C441414141414140000000000000000C0
:102810000000000000000000000000F800000000C0
:10282000000000333000000000100C06100C060001
:10283000000000000000000040C07840C078400068
:10284000043F04043F040400007088FC08300000CA
:10285000001820FF211E0000F008F000E018000022
:1028600000211C031E211E0000F0088870000000DB
:102870001E2123241927211010160E00000000002D
:102880000000000000000000000000E0180402004A
:10289000000000071820400000020418E0000000BB
:1028A0000040201807000000404080F080404000B9
:1028B0000202010F01020200000000F0000000000F
:1028C0000101011F010101000000000000000000E3
:1028D00080B0700000000000000000000000000058
:1028E00000010101010101010000000000000000E1
:1028F000003030000000000000000000806018047C
:10290000006018060100000000E010080810E00058
:10291000000F102020100F00001010F80000000021
:102920000020203F20200000007008080888700068
:1029300000302824222130000030088888483000E8
:102940000018202020110E000000C02010F8000008
:1029500000070424243F240000F8088888080800A1
:102960000019212020110E0000E0108888180000B6
:10297000000F112020110E0000380808C838080088
:102980000000003F00000000007088080888700008
:10299000001C222121221C0000E010080810E00089
:1029A0000000312222110F00000000C0C000000012
:1029B0000000003030000000000000800000000037
:1029C000000080600000000000008040201008002F
:1029D00000010204081020004040404040404000F8
:1029E00004040404040404000008102040800000D3
:1029F0000020100804020100007048080808F000D8
:102A00000000003036010000C030C828E810E000A7
:102A10000718272423140B000000C038E000000032
:102A2000203C23020227382008F88888887000009C
:102A3000203F202020110E00C03008080808380070
:102A4000071820202010080008F808080810E000E7
:102A5000203F202020100F0008F88888E808100088
:102A6000203F20202320180008F88888E80810005C
:102A7000203F200003000000C03008080838000094
:102A800007182020221E020008F808000008F80895
:102A9000203F210101213F20000808F8080800001C
:102AA0000020203F2020000000000808F80808004F
:102AB000C08080807F00000008F888C028180800C7
:102AC000203F20012638200008F808000000000000
:102AD000203F20202020300008F8F800F8F80800F7
:102AE000203F003F003F200008F830C00008F808F1
:102AF000203F200007183F00E01008080810E00001
:102B00000F10202020100F0008F808080808F00017
:102B1000203F210101010000E01008080810E0003A
:102B20000F18242438504F0008F8888888887000CF
:102B3000203F2000030C302000708808080838006F
:102B40000038202121221C00180808F80808180065
:102B50000000203F2000000008F808000008F808E6
:102B6000001F202020201F000878880000C8380897
:102B7000000007380E010000F80800F80008F8000F
:102B8000033C0700073C03000818688080681808A9
:102B900020302C03032C30200838C800C838080027
:102BA0000000203F2000000010080808C838080076
:102BB0002038262120201800000000FE020202001A
:102BC0000000007F40404000000C30C000000000CA
:102BD000000000010638C00000020202FE000000F2
:102BE000004040407F000000000004020202040098
:102BF00000000000000000000000000000000000D5
:102C000080808080808080800002020400000000BC
:102C100000000000000000000000808080800000B4
:102C20000019242222223F2008F8008080000000A2
:102C3000003F112020110E00000000808080000065
:102C4000000E112020201100000000808088F80074
:102C5000000E112020103F200000808080800000A6
:102C6000001F222222221300008080F0888888180A
:102C70000020203F20200000000080808080800015
:102C8000006B94949493600008F8008080800000AA
:102C9000203F210000203F20008098980000000085
:102CA0000020203F202000000000008098980000B5
:102CB00000C08080807F000008F8000080808000D5
:102CC000203F24022D302000000808F800000000FA
:102CD0000020203F202000008080808080808000B5
:102CE000203F20003F20003F808000808080000047
:102CF000203F210000203F200000808080800000D5
:102D0000001F202020201F00808000808000000005
:102D100080FFA12020110E00000000808080800034
:102D2000000E112020A0FF80808080008080800025
:102D300020203F2120000100000080808080800052
:102D40000033242424241900008080E080800000C7
:102D50000000001F20200000808000000080800014
:102D6000001F202020103F20808080000080808075
:102D700000010E3008060100808000800080808005
:102D80000F300C030C300F0000808000808080002A
:102D90000020312E0E312000808080000080808055
:102DA00080818E7018060100008080808080800005
:102DB0000021302C2221300000000000807C020223
:102DC00000000000003F404000000000FF00000045
:102DD00000000000FF0000000002027C80000000F4
:102DE0000040403F00000000000601010202040410
:102DF0000000000000000000182E00080000002065
:102E0000BC01000028010008C02E0008BC01002001
:102E1000A4060000840100081184A24A04100901DC
:102E200002030406070809000F124042445CC84030
:102E30007F40C0504E4460403680402018071B3F02
:102E40004001021278093E40111BF888012AFF0553
:102E50000215F81B1F08012A7F200C109F80F05FCD
:102E60003A8201000916E2A2928A868280800418C2
:102E700040807F172424A4FEA3222322CC0214FF27
:102E800015080601FF2B0104010511FF020202587B
:102E900008101010FF109008C3021108080F150445
:102EA00044827F01808040432C10284681A001107D
:102EB0002D01020304042808060708090204065627
:04000005080000ED02
:00000001FF
